{
  "contractName": "Election",
  "abi": [
    {
      "inputs": [
        {
          "internalType": "string[]",
          "name": "candidateNames",
          "type": "string[]"
        }
      ],
      "stateMutability": "nonpayable",
      "type": "constructor"
    },
    {
      "anonymous": false,
      "inputs": [],
      "name": "ElectionEnded",
      "type": "event"
    },
    {
      "anonymous": false,
      "inputs": [],
      "name": "ElectionReset",
      "type": "event"
    },
    {
      "anonymous": false,
      "inputs": [
        {
          "indexed": false,
          "internalType": "address",
          "name": "voter",
          "type": "address"
        },
        {
          "indexed": false,
          "internalType": "uint256",
          "name": "candidate",
          "type": "uint256"
        }
      ],
      "name": "VoteCast",
      "type": "event"
    },
    {
      "inputs": [],
      "name": "admin",
      "outputs": [
        {
          "internalType": "address",
          "name": "",
          "type": "address"
        }
      ],
      "stateMutability": "view",
      "type": "function",
      "constant": true
    },
    {
      "inputs": [
        {
          "internalType": "uint256",
          "name": "",
          "type": "uint256"
        }
      ],
      "name": "candidates",
      "outputs": [
        {
          "internalType": "string",
          "name": "name",
          "type": "string"
        },
        {
          "internalType": "uint256",
          "name": "voteCount",
          "type": "uint256"
        }
      ],
      "stateMutability": "view",
      "type": "function",
      "constant": true
    },
    {
      "inputs": [],
      "name": "electionEnded",
      "outputs": [
        {
          "internalType": "bool",
          "name": "",
          "type": "bool"
        }
      ],
      "stateMutability": "view",
      "type": "function",
      "constant": true
    },
    {
      "inputs": [
        {
          "internalType": "uint256",
          "name": "",
          "type": "uint256"
        }
      ],
      "name": "voterAddresses",
      "outputs": [
        {
          "internalType": "address",
          "name": "",
          "type": "address"
        }
      ],
      "stateMutability": "view",
      "type": "function",
      "constant": true
    },
    {
      "inputs": [
        {
          "internalType": "address",
          "name": "",
          "type": "address"
        }
      ],
      "name": "voters",
      "outputs": [
        {
          "internalType": "bool",
          "name": "isRegistered",
          "type": "bool"
        },
        {
          "internalType": "bool",
          "name": "hasVoted",
          "type": "bool"
        },
        {
          "internalType": "uint256",
          "name": "vote",
          "type": "uint256"
        }
      ],
      "stateMutability": "view",
      "type": "function",
      "constant": true
    },
    {
      "inputs": [
        {
          "internalType": "address",
          "name": "voterAddress",
          "type": "address"
        }
      ],
      "name": "registerVoter",
      "outputs": [],
      "stateMutability": "nonpayable",
      "type": "function"
    },
    {
      "inputs": [
        {
          "internalType": "uint256",
          "name": "candidateIndex",
          "type": "uint256"
        }
      ],
      "name": "vote",
      "outputs": [],
      "stateMutability": "nonpayable",
      "type": "function"
    },
    {
      "inputs": [],
      "name": "endElection",
      "outputs": [],
      "stateMutability": "nonpayable",
      "type": "function"
    },
    {
      "inputs": [
        {
          "internalType": "string[]",
          "name": "newCandidateNames",
          "type": "string[]"
        }
      ],
      "name": "resetElection",
      "outputs": [],
      "stateMutability": "nonpayable",
      "type": "function"
    },
    {
      "inputs": [
        {
          "internalType": "uint256",
          "name": "candidateIndex",
          "type": "uint256"
        }
      ],
      "name": "getCandidate",
      "outputs": [
        {
          "internalType": "string",
          "name": "",
          "type": "string"
        },
        {
          "internalType": "uint256",
          "name": "",
          "type": "uint256"
        }
      ],
      "stateMutability": "view",
      "type": "function",
      "constant": true
    },
    {
      "inputs": [],
      "name": "getCandidatesCount",
      "outputs": [
        {
          "internalType": "uint256",
          "name": "",
          "type": "uint256"
        }
      ],
      "stateMutability": "view",
      "type": "function",
      "constant": true
    },
    {
      "inputs": [],
      "name": "getAllCandidates",
      "outputs": [
        {
          "components": [
            {
              "internalType": "string",
              "name": "name",
              "type": "string"
            },
            {
              "internalType": "uint256",
              "name": "voteCount",
              "type": "uint256"
            }
          ],
          "internalType": "struct Election.Candidate[]",
          "name": "",
          "type": "tuple[]"
        }
      ],
      "stateMutability": "view",
      "type": "function",
      "constant": true
    }
  ],
  "bytecode": "0x60806040523480156200001157600080fd5b5060405162001f7838038062001f78833981810160405281019062000037919062000303565b336000806101000a81548173ffffffffffffffffffffffffffffffffffffffff021916908373ffffffffffffffffffffffffffffffffffffffff16021790555060005b8151811015620001475760026040518060400160405280848481518110620000cb577f4e487b7100000000000000000000000000000000000000000000000000000000600052603260045260246000fd5b60200260200101518152602001600081525090806001815401808255809150506001900390600052602060002090600202016000909190919091506000820151816000019080519060200190620001249291906200014f565b5060208201518160010155505080806200013e9062000454565b9150506200007a565b50506200052f565b8280546200015d906200041e565b90600052602060002090601f016020900481019282620001815760008555620001cd565b82601f106200019c57805160ff1916838001178555620001cd565b82800160010185558215620001cd579182015b82811115620001cc578251825591602001919060010190620001af565b5b509050620001dc9190620001e0565b5090565b5b80821115620001fb576000816000905550600101620001e1565b5090565b60006200021662000210846200037c565b62000348565b9050808382526020820190508260005b858110156200025a57815185016200023f8882620002d6565b84526020840193506020830192505060018101905062000226565b5050509392505050565b60006200027b6200027584620003ab565b62000348565b9050828152602081018484840111156200029457600080fd5b620002a1848285620003e8565b509392505050565b600082601f830112620002bb57600080fd5b8151620002cd848260208601620001ff565b91505092915050565b600082601f830112620002e857600080fd5b8151620002fa84826020860162000264565b91505092915050565b6000602082840312156200031657600080fd5b600082015167ffffffffffffffff8111156200033157600080fd5b6200033f84828501620002a9565b91505092915050565b6000604051905081810181811067ffffffffffffffff8211171562000372576200037162000500565b5b8060405250919050565b600067ffffffffffffffff8211156200039a576200039962000500565b5b602082029050602081019050919050565b600067ffffffffffffffff821115620003c957620003c862000500565b5b601f19601f8301169050602081019050919050565b6000819050919050565b60005b8381101562000408578082015181840152602081019050620003eb565b8381111562000418576000848401525b50505050565b600060028204905060018216806200043757607f821691505b602082108114156200044e576200044d620004d1565b5b50919050565b60006200046182620003de565b91507fffffffffffffffffffffffffffffffffffffffffffffffffffffffffffffffff821415620004975762000496620004a2565b5b600182019050919050565b7f4e487b7100000000000000000000000000000000000000000000000000000000600052601160045260246000fd5b7f4e487b7100000000000000000000000000000000000000000000000000000000600052602260045260246000fd5b7f4e487b7100000000000000000000000000000000000000000000000000000000600052604160045260246000fd5b611a39806200053f6000396000f3fe608060405234801561001057600080fd5b50600436106100b45760003560e01c806359f784681161007157806359f784681461018d578063a3ec138d14610197578063bb9aa28f146101c9578063c94ca9e3146101e7578063dd0e237314610205578063f851a44014610235576100b4565b80630121b93f146100b957806329fe4047146100d55780632e6997fe146100f15780633477ee2e1461010f57806335b8e8201461014057806338db6dd314610171575b600080fd5b6100d360048036038101906100ce9190611123565b610253565b005b6100ef60048036038101906100ea91906110e2565b610496565b005b6100f9610790565b604051610106919061152a565b60405180910390f35b61012960048036038101906101249190611123565b61088b565b60405161013792919061159e565b60405180910390f35b61015a60048036038101906101559190611123565b610947565b60405161016892919061159e565b60405180910390f35b61018b600480360381019061018691906110b9565b610a7d565b005b610195610c5b565b005b6101b160048036038101906101ac91906110b9565b610d82565b6040516101c093929190611567565b60405180910390f35b6101d1610dc6565b6040516101de91906116ce565b60405180910390f35b6101ef610dd3565b6040516101fc919061154c565b60405180910390f35b61021f600480360381019061021a9190611123565b610de6565b60405161022c91906114e6565b60405180910390f35b61023d610e25565b60405161024a91906114e6565b60405180910390f35b6000600160003373ffffffffffffffffffffffffffffffffffffffff1673ffffffffffffffffffffffffffffffffffffffff16815260200190815260200160002090508060000160009054906101000a900460ff166102e7576040517f08c379a00000000000000000000000000000000000000000000000000000000081526004016102de906115ee565b60405180910390fd5b8060000160019054906101000a900460ff1615610339576040517f08c379a00000000000000000000000000000000000000000000000000000000081526004016103309061160e565b60405180910390fd5b600460009054906101000a900460ff1615610389576040517f08c379a0000000000000000000000000000000000000000000000000000000008152600401610380906115ce565b60405180910390fd5b60028054905082106103d0576040517f08c379a00000000000000000000000000000000000000000000000000000000081526004016103c79061162e565b60405180910390fd5b60018160000160016101000a81548160ff021916908315150217905550818160010181905550600160028381548110610432577f4e487b7100000000000000000000000000000000000000000000000000000000600052603260045260246000fd5b9060005260206000209060020201600101600082825461045291906117dc565b925050819055507fa36cc2bebb74db33e9f88110a07ef56e1b31b24b4c4f51b54b1664266e29f45b338360405161048a929190611501565b60405180910390a15050565b60008054906101000a900473ffffffffffffffffffffffffffffffffffffffff1673ffffffffffffffffffffffffffffffffffffffff163373ffffffffffffffffffffffffffffffffffffffff1614610524576040517f08c379a000000000000000000000000000000000000000000000000000000000815260040161051b9061168e565b60405180910390fd5b6000600460006101000a81548160ff0219169083151502179055506002600061054d9190610e49565b60005b8151811015610616576002604051806040016040528084848151811061059f577f4e487b7100000000000000000000000000000000000000000000000000000000600052603260045260246000fd5b602002602001015181526020016000815250908060018154018082558091505060019003906000526020600020906002020160009091909190915060008201518160000190805190602001906105f6929190610e6d565b50602082015181600101555050808061060e906118ee565b915050610550565b5060005b60038054905081101561075257600060038281548110610663577f4e487b7100000000000000000000000000000000000000000000000000000000600052603260045260246000fd5b9060005260206000200160009054906101000a900473ffffffffffffffffffffffffffffffffffffffff16905060405180606001604052806000151581526020016000151581526020016000815250600160008373ffffffffffffffffffffffffffffffffffffffff1673ffffffffffffffffffffffffffffffffffffffff16815260200190815260200160002060008201518160000160006101000a81548160ff02191690831515021790555060208201518160000160016101000a81548160ff0219169083151502179055506040820151816001015590505050808061074a906118ee565b91505061061a565b50600360006107619190610ef3565b7f8d1085cd9eceaab0b77fd20c66dea55df08e5ef2d52859c2cb4a1e16ba9476c060405160405180910390a150565b60606002805480602002602001604051908101604052809291908181526020016000905b8282101561088257838290600052602060002090600202016040518060400160405290816000820180546107e7906118bc565b80601f0160208091040260200160405190810160405280929190818152602001828054610813906118bc565b80156108605780601f1061083557610100808354040283529160200191610860565b820191906000526020600020905b81548152906001019060200180831161084357829003601f168201915b50505050508152602001600182015481525050815260200190600101906107b4565b50505050905090565b6002818154811061089b57600080fd5b90600052602060002090600202016000915090508060000180546108be906118bc565b80601f01602080910402602001604051908101604052809291908181526020018280546108ea906118bc565b80156109375780601f1061090c57610100808354040283529160200191610937565b820191906000526020600020905b81548152906001019060200180831161091a57829003601f168201915b5050505050908060010154905082565b606060006002805490508310610992576040517f08c379a00000000000000000000000000000000000000000000000000000000081526004016109899061164e565b60405180910390fd5b6000600284815481106109ce577f4e487b7100000000000000000000000000000000000000000000000000000000600052603260045260246000fd5b906000526020600020906002020190508060000181600101548180546109f3906118bc565b80601f0160208091040260200160405190810160405280929190818152602001828054610a1f906118bc565b8015610a6c5780601f10610a4157610100808354040283529160200191610a6c565b820191906000526020600020905b815481529060010190602001808311610a4f57829003601f168201915b505050505091509250925050915091565b60008054906101000a900473ffffffffffffffffffffffffffffffffffffffff1673ffffffffffffffffffffffffffffffffffffffff163373ffffffffffffffffffffffffffffffffffffffff1614610b0b576040517f08c379a0000000000000000000000000000000000000000000000000000000008152600401610b029061168e565b60405180910390fd5b600160008273ffffffffffffffffffffffffffffffffffffffff1673ffffffffffffffffffffffffffffffffffffffff16815260200190815260200160002060000160009054906101000a900460ff1615610b9b576040517f08c379a0000000000000000000000000000000000000000000000000000000008152600401610b929061166e565b60405180910390fd5b60018060008373ffffffffffffffffffffffffffffffffffffffff1673ffffffffffffffffffffffffffffffffffffffff16815260200190815260200160002060000160006101000a81548160ff0219169083151502179055506003819080600181540180825580915050600190039060005260206000200160009091909190916101000a81548173ffffffffffffffffffffffffffffffffffffffff021916908373ffffffffffffffffffffffffffffffffffffffff16021790555050565b60008054906101000a900473ffffffffffffffffffffffffffffffffffffffff1673ffffffffffffffffffffffffffffffffffffffff163373ffffffffffffffffffffffffffffffffffffffff1614610ce9576040517f08c379a0000000000000000000000000000000000000000000000000000000008152600401610ce09061168e565b60405180910390fd5b600460009054906101000a900460ff1615610d39576040517f08c379a0000000000000000000000000000000000000000000000000000000008152600401610d30906116ae565b60405180910390fd5b6001600460006101000a81548160ff0219169083151502179055507f66ec723071e4bb646f7b35d31bc2dee8510979bd8c180edd0690d4f5e802f1e460405160405180910390a1565b60016020528060005260406000206000915090508060000160009054906101000a900460ff16908060000160019054906101000a900460ff16908060010154905083565b6000600280549050905090565b600460009054906101000a900460ff1681565b60038181548110610df657600080fd5b906000526020600020016000915054906101000a900473ffffffffffffffffffffffffffffffffffffffff1681565b60008054906101000a900473ffffffffffffffffffffffffffffffffffffffff1681565b5080546000825560020290600052602060002090810190610e6a9190610f14565b50565b828054610e79906118bc565b90600052602060002090601f016020900481019282610e9b5760008555610ee2565b82601f10610eb457805160ff1916838001178555610ee2565b82800160010185558215610ee2579182015b82811115610ee1578251825591602001919060010190610ec6565b5b509050610eef9190610f43565b5090565b5080546000825590600052602060002090810190610f119190610f43565b50565b5b80821115610f3f5760008082016000610f2e9190610f60565b600182016000905550600201610f15565b5090565b5b80821115610f5c576000816000905550600101610f44565b5090565b508054610f6c906118bc565b6000825580601f10610f7e5750610f9d565b601f016020900490600052602060002090810190610f9c9190610f43565b5b50565b6000610fb3610fae8461171a565b6116e9565b9050808382526020820190508260005b85811015610ff35781358501610fd9888261107a565b845260208401935060208301925050600181019050610fc3565b5050509392505050565b600061101061100b84611746565b6116e9565b90508281526020810184848401111561102857600080fd5b61103384828561187a565b509392505050565b60008135905061104a816119d5565b92915050565b600082601f83011261106157600080fd5b8135611071848260208601610fa0565b91505092915050565b600082601f83011261108b57600080fd5b813561109b848260208601610ffd565b91505092915050565b6000813590506110b3816119ec565b92915050565b6000602082840312156110cb57600080fd5b60006110d98482850161103b565b91505092915050565b6000602082840312156110f457600080fd5b600082013567ffffffffffffffff81111561110e57600080fd5b61111a84828501611050565b91505092915050565b60006020828403121561113557600080fd5b6000611143848285016110a4565b91505092915050565b6000611158838361148b565b905092915050565b61116981611832565b82525050565b600061117a82611786565b61118481856117a9565b93508360208202850161119685611776565b8060005b858110156111d257848403895281516111b3858261114c565b94506111be8361179c565b925060208a0199505060018101905061119a565b50829750879550505050505092915050565b6111ed81611844565b82525050565b60006111fe82611791565b61120881856117ba565b9350611218818560208601611889565b611221816119c4565b840191505092915050565b600061123782611791565b61124181856117cb565b9350611251818560208601611889565b61125a816119c4565b840191505092915050565b60006112726012836117cb565b91507f456c656374696f6e2068617320656e64656400000000000000000000000000006000830152602082019050919050565b60006112b26016836117cb565b91507f4e6f74207265676973746572656420746f20766f7465000000000000000000006000830152602082019050919050565b60006112f2600d836117cb565b91507f416c726561647920766f746564000000000000000000000000000000000000006000830152602082019050919050565b60006113326011836117cb565b91507f496e76616c69642063616e6469646174650000000000000000000000000000006000830152602082019050919050565b60006113726018836117cb565b91507f43616e64696461746520646f6573206e6f7420657869737400000000000000006000830152602082019050919050565b60006113b2601b836117cb565b91507f566f74657220697320616c7265616479207265676973746572656400000000006000830152602082019050919050565b60006113f26022836117cb565b91507f4f6e6c792061646d696e2063616e20706572666f726d2074686973206163746960008301527f6f6e0000000000000000000000000000000000000000000000000000000000006020830152604082019050919050565b60006114586016836117cb565b91507f456c656374696f6e20616c726561647920656e646564000000000000000000006000830152602082019050919050565b600060408301600083015184820360008601526114a882826111f3565b91505060208301516114bd60208601826114c8565b508091505092915050565b6114d181611870565b82525050565b6114e081611870565b82525050565b60006020820190506114fb6000830184611160565b92915050565b60006040820190506115166000830185611160565b61152360208301846114d7565b9392505050565b60006020820190508181036000830152611544818461116f565b905092915050565b600060208201905061156160008301846111e4565b92915050565b600060608201905061157c60008301866111e4565b61158960208301856111e4565b61159660408301846114d7565b949350505050565b600060408201905081810360008301526115b8818561122c565b90506115c760208301846114d7565b9392505050565b600060208201905081810360008301526115e781611265565b9050919050565b60006020820190508181036000830152611607816112a5565b9050919050565b60006020820190508181036000830152611627816112e5565b9050919050565b6000602082019050818103600083015261164781611325565b9050919050565b6000602082019050818103600083015261166781611365565b9050919050565b60006020820190508181036000830152611687816113a5565b9050919050565b600060208201905081810360008301526116a7816113e5565b9050919050565b600060208201905081810360008301526116c78161144b565b9050919050565b60006020820190506116e360008301846114d7565b92915050565b6000604051905081810181811067ffffffffffffffff821117156117105761170f611995565b5b8060405250919050565b600067ffffffffffffffff82111561173557611734611995565b5b602082029050602081019050919050565b600067ffffffffffffffff82111561176157611760611995565b5b601f19601f8301169050602081019050919050565b6000819050602082019050919050565b600081519050919050565b600081519050919050565b6000602082019050919050565b600082825260208201905092915050565b600082825260208201905092915050565b600082825260208201905092915050565b60006117e782611870565b91506117f283611870565b9250827fffffffffffffffffffffffffffffffffffffffffffffffffffffffffffffffff0382111561182757611826611937565b5b828201905092915050565b600061183d82611850565b9050919050565b60008115159050919050565b600073ffffffffffffffffffffffffffffffffffffffff82169050919050565b6000819050919050565b82818337600083830152505050565b60005b838110156118a757808201518184015260208101905061188c565b838111156118b6576000848401525b50505050565b600060028204905060018216806118d457607f821691505b602082108114156118e8576118e7611966565b5b50919050565b60006118f982611870565b91507fffffffffffffffffffffffffffffffffffffffffffffffffffffffffffffffff82141561192c5761192b611937565b5b600182019050919050565b7f4e487b7100000000000000000000000000000000000000000000000000000000600052601160045260246000fd5b7f4e487b7100000000000000000000000000000000000000000000000000000000600052602260045260246000fd5b7f4e487b7100000000000000000000000000000000000000000000000000000000600052604160045260246000fd5b6000601f19601f8301169050919050565b6119de81611832565b81146119e957600080fd5b50565b6119f581611870565b8114611a0057600080fd5b5056fea26469706673582212200e4a1bbe97eb34a8fcde6eeb06ee3c49c9fe11b4a917d859261ada0de2b103e164736f6c63430008000033",
  "immutableReferences": {},
  "source": "// contracts/Election.sol\r\n// SPDX-License-Identifier: MIT\r\npragma solidity ^0.8.0;\r\n\r\ncontract Election {\r\n    struct Voter {\r\n        bool isRegistered;\r\n        bool hasVoted;\r\n        uint256 vote;\r\n    }\r\n\r\n    struct Candidate {\r\n        string name;\r\n        uint256 voteCount;\r\n    }\r\n\r\n    address public admin;\r\n    mapping(address => Voter) public voters;\r\n    Candidate[] public candidates;\r\n    address[] public voterAddresses;\r\n    bool public electionEnded;\r\n\r\n    event VoteCast(address voter, uint256 candidate);\r\n    event ElectionEnded();\r\n    event ElectionReset();\r\n\r\n    modifier onlyAdmin() {\r\n        require(msg.sender == admin, \"Only admin can perform this action\");\r\n        _;\r\n    }\r\n\r\n    constructor(string[] memory candidateNames) {\r\n        admin = msg.sender;\r\n        for (uint256 i = 0; i < candidateNames.length; i++) {\r\n            candidates.push(Candidate({ name: candidateNames[i], voteCount: 0 }));\r\n        }\r\n    }\r\n\r\n    // Function to register a voter\r\n    function registerVoter(address voterAddress) public onlyAdmin {\r\n        require(!voters[voterAddress].isRegistered, \"Voter is already registered\");\r\n        voters[voterAddress].isRegistered = true;\r\n        voterAddresses.push(voterAddress);\r\n    }\r\n\r\n    // Function to cast a vote\r\n    function vote(uint256 candidateIndex) public {\r\n        Voter storage sender = voters[msg.sender];\r\n        require(sender.isRegistered, \"Not registered to vote\");\r\n        require(!sender.hasVoted, \"Already voted\");\r\n        require(!electionEnded, \"Election has ended\");\r\n        require(candidateIndex < candidates.length, \"Invalid candidate\");\r\n\r\n        sender.hasVoted = true;\r\n        sender.vote = candidateIndex;\r\n\r\n        candidates[candidateIndex].voteCount += 1;\r\n        emit VoteCast(msg.sender, candidateIndex);\r\n    }\r\n\r\n    // Function to end the election\r\n    function endElection() public onlyAdmin {\r\n        require(!electionEnded, \"Election already ended\");\r\n        electionEnded = true;\r\n        emit ElectionEnded();\r\n    }\r\n\r\n    // Function to reset the election\r\n    function resetElection(string[] memory newCandidateNames) public onlyAdmin {\r\n        // Reset election state\r\n        electionEnded = false;\r\n\r\n        // Clear candidates array\r\n        delete candidates;\r\n\r\n        // Initialize new candidates\r\n        for (uint256 i = 0; i < newCandidateNames.length; i++) {\r\n            candidates.push(Candidate({ name: newCandidateNames[i], voteCount: 0 }));\r\n        }\r\n\r\n        // Reset voters mapping\r\n        for (uint256 i = 0; i < voterAddresses.length; i++) {\r\n            address voterAddress = voterAddresses[i];\r\n            voters[voterAddress] = Voter({\r\n                isRegistered: false,\r\n                hasVoted: false,\r\n                vote: 0\r\n            });\r\n        }\r\n        delete voterAddresses;\r\n\r\n        emit ElectionReset();\r\n    }\r\n\r\n    // Function to get candidate details\r\n    function getCandidate(uint256 candidateIndex) public view returns (string memory, uint256) {\r\n        require(candidateIndex < candidates.length, \"Candidate does not exist\");\r\n        Candidate storage candidate = candidates[candidateIndex];\r\n        return (candidate.name, candidate.voteCount);\r\n    }\r\n\r\n    // Function to get the number of candidates\r\n    function getCandidatesCount() public view returns (uint256) {\r\n        return candidates.length;\r\n    }\r\n\r\n    // Function to get all candidates\r\n    function getAllCandidates() public view returns (Candidate[] memory) {\r\n        return candidates;\r\n    }\r\n}\r\n",
  "sourcePath": "C:\\Users\\Jony\\blockchain-election-system\\smart-contracts\\contracts\\election.sol",
  "compiler": {
    "name": "solc",
    "version": "0.8.0+commit.c7dfd78e.Emscripten.clang"
  },
  "schemaVersion": "3.4.16",
  "updatedAt": "2024-11-06T13:28:26.750Z",
  "networkType": "ethereum",
  "devdoc": {
    "kind": "dev",
    "methods": {},
    "version": 1
  },
  "userdoc": {
    "kind": "user",
    "methods": {},
    "version": 1
  }
}